:03000000020819DA
:0C081900787FE4F6D8FD75813B02086092
:100E5B006307FF530703EFC31324FF92B0EF139203
:020E6B00B122B2
:060EDD00EF24FF92B42295
:03000600D2B4224F
:100D8000AE07AC03AF05C3EE648094A04017D3EE6A
:100D9000648094DF500F120E5B8E90AF04120EDD54
:060DA00000001200062213
:060BB3008B198A1A891B50
:100BB900802DAB19AA1AA91B120506602B051BE586
:100BC9001B7002051A14F9120506FFE51C5403FDF2
:100BD900E51C1313543FFB120D80E51CB40305E417
:080BE900F51C80CE051C80CA3A
:010BF10022E1
:1006F30053415645004D4F4E200054554520005759
:100703004544200054485520004652492000534197
:1007130054200053554E20004552522000454E416F
:10072300420044534142002020202000434F4E46C4
:100733000054494D450044454C41004C5050530032
:100743005449435900544543590059454152004DBA
:100753004E5448004441544500444F5700484F55B8
:1007630052004D494E20004320205300534554204E
:100773000043414E4C004C4F4144004641494C001C
:0507830056312E330089
:100D5900C101C106C100C103C104C182C105023379
:100D69000000022FFFFF0231FFFF012200073509B2
:060D79006007D0019000AC
:100E3300438E805389F0438901758AA0758C15C24E
:040E43008DD28C229E
:0C0E9E007F177ECD7D78DDFEDEFCDFFAE4
:010EAA002225
:0A0EB80000007F3B7E59DEFEDFFCE8
:010EC200220D
:1009EC007B007A0079097D057C007F107E00120B5C
:1009FC002BE50964997040E50D64AA703AE50AD3B9
:100A0C009400400BE50A75F0C8A485F037F538E57D
:100A1C000BD39400400BE50B75F0C8A485F039F5A9
:100A2C003AE538253AF536E5373539F535850C3B59
:080A3C00AF0C120CD6D322C34B
:010A4400228F
:100B71007BFF7A0679F3120BB3750A99AE37AF385A
:100B81007C007DC81205A28F0BAE39AF3A7C007D87
:100B9100C81205A28F0C853B0D750EAAE4FF120E3B
:100BA1007E7B007A00790A7D057C007F107E000241
:020BB1000AE553
:0B0EC300C2AF120E9E120E9ED2AF2294
:0C0D2E00AB0AAA0BA90C120506FFAD15BC
:100D3A00EF75F00A842430FE742A2DF8A606EF75A2
:0F0D4A00F00A84E5F02430FF742B2DF8A6072261
:100CA1002003033004FA20B21920B316C204C20390
:100CB10030B2FD30B3FA120EB830B2FD30B3FA7F64
:100CC1000322300305C2037F0122300405C2047FE1
:050CD10002227F002259
:10098900E526B401087BFF7A0679F88052E526B49A
:1009990002087BFF7A0679FD8045E526B403087BCA
:1009A900FF7A0779028038E526B404087BFF7A07C5
:1009B9007907802BE526B405087BFF7A07790C8037
:1009C9001EE526B406087BFF7A0779118011E52612
:1009D9007BFFB407067A07791680047A07791B1218
:0309E9000BB3222B
:100E4700E53B7BFF60067A07792080047A077925DE
:040E5700120BB322A5
:100DA6007B007A00792A120BB3120E9E7BFF7A071C
:100DB600792A120BB3120E9E7B007A00792A120B47
:040DC600B3020E9EC8
:10060D0075120075130075142A7515017A00790994
:04061D007B007D01E0
:080621008D0D8B0A8A0B890C78
:10062900120506F518AB0FAA10A911120BB3120E79
:10063900C3300505120989800C120D2EAB12AA13BD
:10064900A914120BB3853316853417120CA1EF24A4
:10065900FE6035146067240270D7C3E5179534FF2F
:10066900E5169533FED3EF94BCEE940240C385336F
:1006790016853417AB0AAA0BA90C120506F518D36F
:10068900950D40AD74FF802FC3E5179534FFE5162E
:100699009533FED3EF94BCEE9402409585331685CD
:1006A9003417AB0AAA0BA90C120506F518C3950E47
:1006B900400302063A740112054C02063AAB0AAA33
:1006C9000BA90CE51812056E300518120989120ECE
:1006D9009E7BFF7A07792A120BB3120E9E120989A3
:0906E900020E9E120D2E120DA648
:0106F20022E5
:100016007BFF7A07792F120BB3120EC37BFF7A0789
:100026007934120BB32003033004FA300305C203FC
:1000360002014F30043CC2047BFF7A077939120B68
:10004600B32003033004FA300305C2030200EC3088
:100056000420C2047BFF7A07793E120BB320030308
:100066003004FA300304C2038008300405C20402D7
:100076000273120E47AD34AC33C205120CA1EF2445
:10008600FE6025146040240270E8C3ED9534FFEC51
:100096009533FED3EF94BCEE940240D6AC33AD3428
:1000A600853B09753B0180CAC3ED9534FFEC95335A
:1000B600FED3EF94BCEE940240B8AC33AD34853B2E
:1000C60009E4F53B80AC85093B120E47AF3B120CA9
:1000D600D6120E9E7BFF7A07792A120BB3120E9E5A
:1000E600120E47020270752A20752D53C205AE37CF
:1000F600AF387C007DC81205A28F09750E96750F64
:10010600FF75100775114312060DE50975F0C8A4B1
:1001160085F037F538AE39AF3A7C007DC81205A2B6
:100126008F09750E96750FFF751007751148120623
:100136000DE50975F0C8A485F039F53A2538F53688
:10014600E5373539F5350202737B007A00792312DB
:100156000788752A32752B30C205750E63750FFF39
:1001660075100775114D75120075130075142A75F3
:1001760015027B007A007923E4FD120621752D20F5
:10018600752A20C205750E0C750FFF7510077511BF
:100196005275120075130075142A7515017B007AC5
:1001A600007924E4FD120621C205750E1F750FFFA6
:1001B60075100775115775120075130075142A7599
:1001C60015017B007A007925E4FD120621D205751A
:1001D6000E07750FFF75100775115C751200751304
:1001E6000075142A7515017A00792612061DC205B6
:1001F600750E17750FFF751007751160751200756E
:10020600130075142A7515017B007A007927E4FD21
:10021600120621C205750E3B750FFF751007751185
:100226006575120075130075142A7515017B007A21
:10023600007928E4FD120621E4F5297BFF7A077987
:100246006A120BB32003033004FA3004117B007AE0
:10025600007923120A9C7BFF7A07796F80093003A5
:10026600097BFF7A077974120BB3120E9EE53624CA
:10027600FFF534E53534FFF533C201C205C203C2CA
:0702860004120B71020E9E31
:0D0EAB00D2A9D2A8C288D2AAC28AD2AF2290
:1003FF00E4F508120EAB120E337BFF7A07798312E6
:10040F000BB3120E9E1209EC7BFF50097A07797914
:10041F00120BB3800D7A07797E120BB3120E9E1258
:10042F000B71120E9EE4F52EE53BB4010A20020774
:10043F007F01120CD6D2022001EE300026C200E45A
:10044F00F5221203098F08E508645560F5752A2017
:10045F007D01120D3A752D437B007A00792A120B1C
:10046F00B3C206300624C206E4F522FB7A007923D4
:10047F00120788E4FDAF27120D3A7D02AF28120D47
:10048F003A7B007A00792A120BB3300307C203D2EA
:10049F0001120016300491C204E522B40221AF3BD1
:1004AF00120CD6E4F522752A32752B307D02AF235C
:1004BF00120D3A7B007A00792A120BB3020437E54A
:1004CF0022B40109752202120989020437E522605C
:1004DF0003020437752201FF120CD6C202E4FDAFEE
:1004EF0024120D3A7D02AF25120D3A7B007A007966
:0704FF002A120BB3020437BF
:03000B00020BF2F3
:100BF200C0E0C0D0E53445337004D2068020E5342D
:100C0200B53809E533B53704D2008012E534B5367C
:100C12000DE533B5350875330075340080080534A9
:0B0C2200E53470020533D0D0D0E03282
:030003000208A54B
:1008A500C0E0C0F0C083C082C0D075D000C000C019
:1008B50001C002C003C004C005C006C00720033143
:1008C500AE2FAF30E4FCFD7BFF7AFFF9F8C31205CC
:1008D500F7601EC3E5349530FFE533952FFEC3EF72
:1008E500944BEE94004010D203752FFF7530FF80B6
:1008F5000685332F853430D007D006D005D004D0F7
:1009050003D002D001D000D0D0D082D083D0F0D097
:02091500E032CE
:03001300020917C8
:10091700C0E0C0F0C083C082C0D075D000C000C0A6
:1009270001C002C003C004C005C006C007200431CF
:10093700AE31AF32E4FCFD7BFF7AFFF9F8C3120555
:10094700F7601EC3E5349532FFE5339531FEC3EFFB
:10095700944BEE94004010D2047531FF7532FF803E
:1009670006853331853432D007D006D005D004D080
:1009770003D002D001D000D0D0D082D083D0F0D025
:02098700E0325C
:100E1D00D2B500D2B70000000000C2B5000000003E
:060E2D0000C2B700002224
:100E6D00C2B500D2B70000000000D2B500000000EE
:010E7D002252
:100C2D00E4FEEFA806088002C333D8FC30E704D2F7
:100C3D00B58002C2B500D2B70000000000C2B70EE9
:100C4D00BE08DF0000D2B50000D2B7000000D20709
:090C5D0030B502C207C2B7000065
:010C6600226B
:100DCA00E4FFD2B5FE00C2B70000000000D2B700AF
:100DDA0000EF25E0FF30B5010F00000EBE08E6C2A5
:030DEA00B700004F
:010DED0022E3
:100DEE00200804C2B58002D2B5000000D2B70000C0
:080DFE00000000C2B700002252
:020C6700AE07D6
:100C6900120E1D120C2D200702C322AF05120C2DE6
:100C7900200702C322E4FDEDC3951650161205069E
:100C8900FF120C2D200702C322740129F9E43AFA54
:070C99000D80E4120E6DD383
:010CA0002231
:020A4500AC07FC
:100A4700120E1D120C2D200702C322AF05120C2D0A
:100A5700200702C322120E1DEC04FF120C2D2007E3
:100A670002C322E4FDE51914FFEDC39F5016120DD2
:100A7700CAEF12056EC208120DEE740129F9E43AA5
:100A8700FA0D80E1120DCAEF12056ED208120DEEB3
:040A9700120E6DD3FB
:010A9B002238
:040E060012051FFFB3
:100E0A00EF75F00A84C454F0FEEF75F00A84E5F039
:030E1A002EFF2286
:0F0E8F00EFC4540F75F00AA4FEEF540F2EFF228C
:020CD6008F0E7F
:100CD8007B007A00790F7519017D0E7FD0120A45C5
:100CE800530FE3E50E7003430F047B007A00790F7E
:0A0CF8007516017D0E7FD0020C6717
:060788008B0A8A0B890CAC
:10078E007B007A00790D751907E4FD7FD0120A45BA
:10079E00AF0D120E8FAB0AAA0BA90C900006EF122A
:1007AE000580AF0E120E8FAB0AAA0BA90C90000596
:1007BE00EF120580AF0F120E8FAB0AAA0BA90C9089
:1007CE000004EF120580AF10120E8FAB0AAA0BA910
:1007DE000C900003EF120580AF11120E8FAB0AAA18
:1007EE000BA90C900002EF120580AF12120E8FAB08
:1007FE000AAA0BA90C900001EF120580AF13120E7E
:0B080E008FAB0AAA0BA90CEF02056ECD
:100A9C00900006120E068F0A900005120E068F0BA0
:100AAC00900004120E068F0C900003120E068F0D90
:100ABC00900002120E068F0E900001120E068F0F80
:100ACC00120506FF120E0A8F107B007A00790A7548
:090ADC001607E4FD7FD0020C674F
:100D0200AB07AA06E42BFB74103AF5E3AF03EFF549
:100D1200E4C2AF75E7838DE575E64675E6B9E4F59D
:0C0D2200E7F5E5F5E6F5E4F5E3D2AF22D5
:070ED6008DE27D02020D0216
:0E0AE5008E0F8F108C118D128B138A148915B1
:100AF300E4F516F517C3E5179512E516951150277A
:100B0300E5102517FFE50F3516FEAB13AA14A9153B
:100B130085178285168312051FFD120ED60517E56C
:070B23001770D2051680CE09
:010B2A0022A8
:080ECE007D01120D02AFE222CA
:0E0B2B008E0E8F0F8C108D118B128A13891471
:100B3900E4F515F516C3E5169511E5159510502739
:100B4900E50F2516FFE50E3515FE120ECEAB12AADE
:100B590013A914851682851583EF1205800516E5FC
:070B69001670D2051580CEC5
:010B70002262
:100E7E00EF25E0FEE42400FFEE3410FE7D03020DAC
:010E8E000261
:10028D00D29700C2977912786BD8FED9FAD297001F
:10029D000000000000000000000000000000000051
:1002AD000000000000000000000000000000000041
:1002BD000000000000000000000000000000000031
:1002CD000000000000000000000000000000000021
:1002DD000000000000000000000000000078DE308B
:1002ED009705D8FB0202F9D2050202FEC2050203F0
:1002FD00067F067875D8FEDFFAD29722D2971202C2
:10030D008D200502803274CC12034F744412034FBA
:10031D001203F6D29712028D74CC12034F74BE12D3
:10032D00034F12037EE5078506F0A2F013A2F11329
:10033D00A2F213A2F313F5072005047FFF8002AF8D
:10034D0007227A08C3C2977B24DBFE1392977BC0EA
:0B035D00DBFED2970000000000000053
:100368000000000000000000000000000000000085
:1003780000DAD7D297227C0279077A08C3D297008D
:100388000000000000000000000000000000000065
:100398000000000000000000000000000000000055
:1003A8000000000000C297000000000000000000EC
:1003B8000000000000000000000000000000000035
:1003C8000000000000000000000000000000000025
:1003D80000000000000000000000D2977B36DBFE22
:1003E800A2977B8ADBFE13DA93F719DC8D227F064E
:0703F8007EFFDEFEDFFA22AA
:100825000203FFE493A3F8E493A34003F68001F2E7
:1008350008DFF48029E493A3F85407240CC8C333D4
:10084500C4540F4420C8834004F456800146F6DFA3
:10085500E4800B0102040810204080900D59E47ECD
:10086500019360BCA3FF543F30E509541FFEE49398
:10087500A360010ECF54C025E060A840B8E493A35F
:10088500FAE493A3F8E493A3C8C582C8CAC583CA8A
:10089500F0A3C8C582C8CAC583CADFE9DEE780BE42
:010D7F000073
:10050600BB010689828A83E0225002E722BBFE02F3
:09051600E32289828A83E4932226
:10051F00BB010CE58229F582E5833AF583E0225091
:10052F0006E92582F8E622BBFE06E92582F8E222DB
:0D053F00E58229F582E5833AF583E49322F5
:10054C00BB010989828A83F8E028F022500327F73F
:10055C0022BBFE05F8E328F3228A838982F8E49310
:02056C00282243
:10056E00BB010689828A83F0225002F722BBFE016C
:02057E00F32266
:10058000F8BB010DE58229F582E5833AF583E8F0B1
:10059000225006E92582C8F622BBFE05E92582C85D
:0205A000F22245
:1005A200BC000BBE0029EF8DF084FFADF022E4CC3D
:1005B200F875F008EF2FFFEE33FEEC33FCEE9DEC06
:1005C200984005FCEE9DFE0FD5F0E9E4CEFD22ED4C
:1005D200F8F5F0EE8420D21CFEADF075F008EF2F96
:1005E200FFED33FD4007985006D5F0F222C398FD87
:0505F2000FD5F0EA2224
:1005F700EB9FF5F0EA9E42F0E99D42F0EC6480C87B
:0606070064809845F0221A
:00000001FF
