:03000000020808EB
:0C080800787FE4F6D8FD75813B02084FB4
:100E64006307FF530703EFC31324FF92B0EF1392FA
:020E7400B122A9
:090EC600EF7003C2B422D2B42281
:03000600D2B4224F
:100D7300AE07AC03AF05C3EE648094A04017D3EE77
:100D8300648094DF500F120E648E90AF04120EC66F
:060D930000001200062220
:060B9D008B198A1A891B66
:100BA300802DAB19AA1AA91B1203FF602B051BE5A5
:100BB3001B7002051A14F91203FFFFE51C5403FD11
:100BC300E51C1313543FFB120D73E51CB40305E43A
:080BD300F51C80CE051C80CA50
:010BDB0022F7
:1007780053415645004D4F4E2000545545200057D3
:100788004544200054485520004652492000534112
:1007980054200053554E20004552522000454E41EA
:1007A800420044534142002020202000434F4E463F
:1007B8000054494D450044454C41004C50505300AD
:1007C8005449435900544543590059454152004D35
:1007D8004E5448004441544500444F5700484F5533
:1007E80052004D494E2000432020530053455420C9
:1007F8000043414E4C004C4F4144004641494C0097
:100D4C00C101C106C100C103C104C182C105023386
:100D5C000000022FFFFF0231FFFF012200073509BF
:060D6C006007D0019001B8
:100E3C00438E805389F0438901758AA0758C15C245
:040E4C008DD28C2295
:0C0E96007F177ECD7D78DDFEDEFCDFFAEC
:010EA200222D
:0A0EB00000007F3B7E59DEFEDFFCF0
:010EBA002215
:100A32007B007A0079097D057C007F107E00120B15
:100A420015E5096499703BE50D64AA7035E50AD392
:100A52009400400BE50A75F0C8A485F037F538E537
:100A62000BD39400400BE50B75F0C8A485F039F563
:100A72003AE538253AF536E5373539F535850C3B13
:030A8200D322C3B9
:010A8500224E
:100B5B007BFF7A077978120B9D750A99AE37AF3800
:100B6B007C007DC812049B8F0BAE39AF3A7C007DA5
:100B7B00C812049B8F0C853B0D750EAAE4FF120E59
:100B8B00267B007A00790A7D057C007F107E0002AF
:020B9B000ACF7F
:0B0EBB00C2AF120E96120E96D2AF22AC
:0C0D2100AB0AAA0BA90C1203FFFFAD15D2
:100D2D00EF75F00A842430FE742A2DF8A606EF75AF
:0F0D3D00F00A84E5F02430FF742B2DF8A607226E
:100C8D002003033004FA20B21920B316C204C203A4
:100C9D0030B2FD30B3FA120EB030B2FD30B3FA7F80
:100CAD000322300305C2037F0122300405C2047FF5
:050CBD0002227F00226D
:10097800E526B401087BFF7A07797D8052E526B425
:1009880002087BFF7A0779828045E526B403087B55
:10099800FF7A0779878038E526B404087BFF7A0751
:1009A800798C802BE526B405087BFF7A077991803E
:1009B8001EE526B406087BFF7A0779968011E5269E
:1009C8007BFFB407067A07799B80047A0779A0121F
:0309D8000B9D2252
:100E5000E53B7BFF60067A0779A580047A0779AACB
:040E6000120B9D22B2
:100D99007B007A00792A120B9D120E967BFF7A0747
:100DA90079AF120B9D120E967B007A00792A120BED
:040DB9009D020E96F3
:1006010075120075130075142A7515017A007909A0
:040611007B007D01EC
:080615008D0D8B0A8A0B890C84
:10061D001203FFF518AB0FAA10A911120B9D120EA4
:10062D00BB300505120978800C120D21AB12AA13EF
:10063D00A914120B9D853316853417120C8DEF24DA
:10064D00FE6035146067240270D7C3E5179534FF3B
:10065D00E5169533FED3EF94BCEE940240C385337B
:10066D0016853417AB0AAA0BA90C1203FFF518D384
:10067D00950D40AD74FF802FC3E5179534FFE5163A
:10068D009533FED3EF94BCEE9402409585331685D9
:10069D003417AB0AAA0BA90C1203FFF518C3950E5C
:1006AD00400302062E740112044502062EAB0AAA5F
:1006BD000BA90CE518120467300518120978120EF3
:1006CD00967BFF7A0779AF120B9D120E9612097861
:0906DD00020E96120D21120D9976
:0106E60022F1
:100016007BFF7A0779B4120B9D120EBB7BFF7A0722
:1000260079B9120B9D2003033004FA300305C2038D
:1000360002014F30043CC2047BFF7A0779BE120BE3
:100046009D2003033004FA300305C2030200EC309E
:100056000420C2047BFF7A0779C3120B9D20030399
:100066003004FA300304C2038008300405C20402D7
:100076000273120E50AD34AC33C205120C8DEF2450
:10008600FE6025146040240270E8C3ED9534FFEC51
:100096009533FED3EF94BCEE940240D6AC33AD3428
:1000A600853B09753B0180CAC3ED9534FFEC95335A
:1000B600FED3EF94BCEE940240B8AC33AD34853B2E
:1000C60009E4F53B80AC85093B120E50AF3B120CA0
:1000D600C2120E967BFF7A0779AF120B9D120E960F
:1000E600120E50020270752A20752D53C205AE37C6
:1000F600AF387C007DC812049B8F09750E96750F6C
:10010600FF7510077511C8120601E50975F0C8A438
:1001160085F037F538AE39AF3A7C007DC812049BBE
:100126008F09750E96750FFF7510077511CD12069E
:1001360001E50975F0C8A485F039F53A2538F53694
:10014600E5373539F5350202737B007A00792312DB
:1001560006E7752A32752B30C205750E63750FFFDB
:100166007510077511D275120075130075142A756E
:1001760015027B007A007923E4FD120615752D2001
:10018600752A20C205750E0C750FFF7510077511BF
:10019600D775120075130075142A7515017B007A40
:1001A600007924E4FD120615C205750E1F750FFFB2
:1001B6007510077511DC75120075130075142A7514
:1001C60015017B007A007925E4FD120615D2057526
:1001D6000E07750FFF7510077511E175120075137F
:1001E6000075142A7515017A007926120611C205C2
:1001F600750E17750FFF7510077511E575120075E9
:10020600130075142A7515017B007A007927E4FD21
:10021600120615C205750E3B750FFF751007751191
:10022600EA75120075130075142A7515017B007A9C
:10023600007928E4FD120615E4F5297BFF7A077993
:10024600EF120B9D2003033004FA3004117B007A71
:10025600007923120A867BFF7A0779F48009300336
:10026600097BFF7A0779F9120B9D120E96E5362463
:10027600FFF534E53534FFF533C201C205C203C2CA
:0702860004120B5B020E964F
:0D0EA300D2A9D2A8C288D2AAC28AD2AF2298
:10050600E4F508120EA3120E3C120A327BFF5009C4
:100516007A0779FE120B9D800D7A087903120B9DDE
:10052600120E96120B5B120E96E4F52EE53BB40105
:100536000A2002077F01120CC2D2022001EE30000F
:1005460026C200E4F5221203098F08E50864556007
:10055600F5752A207D01120D2D752D437B007A003D
:10056600792A120B9DC206300624C206E4F522FB48
:100576007A0079231206E7E4FDAF27120D2D7D02DE
:10058600AF28120D2D7B007A00792A120B9D3003BD
:1005960007C203D201120016300491C204E522B448
:1005A6000221AF3B120CC2E4F522752A32752B30BC
:1005B6007D02AF23120D2D7B007A00792A120B9D46
:1005C600020532E522B401097522021209780205F4
:1005D60032E5226003020532752201FF120CC2C207
:1005E60002E4FDAF24120D2D7D02AF25120D2D7BE9
:0B05F600007A00792A120B9D020532EA
:03000B00020C18CC
:100C1800C0E0C0D0E53445337004D2068020E53406
:100C2800B53809E533B53704D2008012E534B53656
:100C38000DE533B535087533007534008008053483
:0B0C4800E53470020533D0D0D0E0325C
:030003000208945C
:10089400C0E0C0F0C083C082C0D075D000C000C02A
:1008A40001C002C003C004C005C006C00720033154
:1008B400AE2FAF30E4FCFD7BFF7AFFF9F8C31204DE
:1008C400F0601EC3E5349530FFE533952FFEC3EF8A
:1008D400944BEE94004010D203752FFF7530FF80C7
:1008E4000685332F853430D007D006D005D004D008
:1008F40003D002D001D000D0D0D082D083D0F0D0A9
:02090400E032DF
:03001300020906D9
:10090600C0E0C0F0C083C082C0D075D000C000C0B7
:1009160001C002C003C004C005C006C007200431E0
:10092600AE31AF32E4FCFD7BFF7AFFF9F8C3120467
:10093600F0601EC3E5349532FFE5339531FEC3EF13
:10094600944BEE94004010D2047531FF7532FF804F
:1009560006853331853432D007D006D005D004D091
:1009660003D002D001D000D0D0D082D083D0F0D036
:02097600E0326D
:100E1000D2B500D2B70000000000C2B5000000004B
:060E200000C2B700002231
:100E7600C2B500D2B70000000000D2B500000000E5
:010E86002249
:100BDC00E4FEEFA806088002C333D8FC30E704D249
:100BEC00B58002C2B500D2B70000000000C2B70E3B
:100BFC00BE08DF0000D2B50000D2B700000030B54F
:0B0C0C0004C2078002D207C2B700003C
:010C170022BA
:100DBD00E4FFD2B5FE00C2B70000000000D2B700BC
:100DCD0000EF25E0FF30B5010F00000EBE08E6C2B2
:030DDD00B700005C
:010DE00022F0
:100DE100200804C2B58002D2B5000000D2B70000CD
:080DF100000000C2B70000225F
:020C5300AE07EA
:100C5500120E10120BDC200702C322AF05120BDCAB
:100C6500200702C322E4FDEDC3951650161203FFBB
:100C7500FF120BDC200702C322740129F9E43AFABA
:070C85000D80E4120E76D38E
:010C8C002245
:0209DB00AC0767
:1009DD00120E10120BDC200702C322AF05120BDC26
:1009ED00200702C322120E10EC04FF120BDC2007AD
:1009FD0002C322E4FDE51914FFEDC39F5016120D3D
:100A0D00BDEF120467C208120DE1740129F9E43A31
:100A1D00FA0D80E1120DBDEF120467D208120DE13F
:040A2D00120E76D35C
:010A310022A2
:040DF900120418FFC9
:100DFD00EF75F00A84C454F0FEEF75F00A84E5F047
:030E0D002EFF2293
:0F0E8700EFC4540F75F00AA4FEEF540F2EFF2294
:020CC2008F0A97
:100CC4007B007A00790B7519017D0E7FD01209DB48
:100CD400E50A6005530BE38008E50B54E34404F58F
:100CE4000B7B007A00790B7516017D0E7FD0020C08
:010CF40053AC
:0606E7008B0A8A0B890C4E
:1006ED007B007A00790D751907E4FD7FD01209DBC7
:1006FD00AF0D120E87AB0AAA0BA90C900006EF12D4
:10070D000479AF0E120E87AB0AAA0BA90C90000547
:10071D00EF120479AF0F120E87AB0AAA0BA90C903A
:10072D000004EF120479AF10120E87AB0AAA0BA9C1
:10073D000C900003EF120479AF11120E87AB0AAAC9
:10074D000BA90C900002EF120479AF12120E87ABB9
:10075D000AAA0BA90C900001EF120479AF13120E27
:0B076D0087AB0AAA0BA90CEF0204677F
:100A8600900006120DF98F0A900005120DF98F0BD2
:100A9600900004120DF98F0C900003120DF98F0DC2
:100AA600900002120DF98F0E900001120DF98F0FB2
:100AB6001203FFFF120DFD8F107B007A00790A7575
:090AC6001607E4FD7FD0020C5379
:100CF500AB07AA06E42BFB74103AF5E3AF03EFF557
:100D0500E4C2AF75E7838DE575E64675E6B9E4F5AA
:0C0D1500E7F5E5F5E6F5E4F5E3D2AF22E2
:070ED7008DE27D02020CF523
:0E0ACF008E0F8F108C118D128B138A148915C7
:100ADD00E4F516F517C3E5179512E5169511502790
:100AED00E5102517FFE50F3516FEAB13AA14A91552
:100AFD00851782851683120418FD120ED70517E58A
:070B0D001770D2051680CE1F
:010B140022BE
:080ECF007D01120CF5AFE222D7
:0E0B15008E0E8F0F8C108D118B128A13891487
:100B2300E4F515F516C3E5169511E515951050274F
:100B3300E50F2516FFE50E3515FE120ECFAB12AAF3
:100B430013A914851682851583EF1204790516E51A
:070B53001670D2051580CEDB
:010B5A002278
:100E26007B007A10EF25E0FEEB2400FBEE3AAF03E1
:060E3600FE7D03020CF535
:10028D00D29700C2977912786BD8FED9FAD297001F
:10029D000000000000000000000000000000000051
:1002AD000000000000000000000000000000000041
:1002BD000000000000000000000000000000000031
:1002CD000000000000000000000000000000000021
:1002DD000000000000000000000000000078DE308B
:1002ED009705D8FB0202F9D2050202FEC2050203F0
:1002FD00067F067875D8FEDFFAD29722D2971202C2
:10030D008D200502803274CC12034F744412034FBA
:10031D001203F6D29712028D74CC12034F74BE12D3
:10032D00034F12037EE5078506F0A2F013A2F11329
:10033D00A2F213A2F313F5072005047FFF8002AF8D
:10034D0007227A08C3C2977B24DBFE1392977BC0EA
:0B035D00DBFED2970000000000000053
:100368000000000000000000000000000000000085
:1003780000DAD7D297227C0279077A08C3D297008D
:100388000000000000000000000000000000000065
:100398000000000000000000000000000000000055
:1003A8000000000000C297000000000000000000EC
:1003B8000000000000000000000000000000000035
:1003C8000000000000000000000000000000000025
:1003D80000000000000000000000D2977B36DBFE22
:1003E800A2977B8ADBFE13DA93F719DC8D227F064E
:0703F8007EFFDEFEDFFA22AA
:10081400020506E493A3F8E493A34003F68001F2EF
:1008240008DFF48029E493A3F85407240CC8C333E5
:10083400C4540F4420C8834004F456800146F6DFB4
:10084400E4800B0102040810204080900D4CE47EEB
:10085400019360BCA3FF543F30E509541FFEE493A9
:10086400A360010ECF54C025E060A840B8E493A370
:10087400FAE493A3F8E493A3C8C582C8CAC583CA9B
:10088400F0A3C8C582C8CAC583CADFE9DEE780BE53
:010D72000080
:1003FF00BB010689828A83E0225002E722BBFE02FC
:09040F00E32289828A83E493222E
:10041800BB010CE58229F582E5833AF583E0225099
:1004280006E92582F8E622BBFE06E92582F8E222E3
:0D043800E58229F582E5833AF583E49322FD
:10044500BB010989828A83F8E028F022500327F747
:1004550022BBFE05F8E328F3228A838982F8E49318
:0204650028224B
:10046700BB010689828A83F0225002F722BBFE0174
:02047700F3226E
:10047900F8BB010DE58229F582E5833AF583E8F0B9
:10048900225006E92582C8F622BBFE05E92582C865
:02049900F2224D
:10049B00BC000BBE0029EF8DF084FFADF022E4CC45
:1004AB00F875F008EF2FFFEE33FEEC33FCEE9DEC0E
:1004BB00984005FCEE9DFE0FD5F0E9E4CEFD22ED54
:1004CB00F8F5F0EE8420D21CFEADF075F008EF2F9E
:1004DB00FFED33FD4007985006D5F0F222C398FD8F
:0504EB000FD5F0EA222C
:1004F000EB9FF5F0EA9E42F0E99D42F0EC6480C883
:0605000064809845F02222
:00000001FF
